:100000000C945B000C9487050C94A4050C9483005D
:100010000C9483000C9483000C9483000C94830054
:100020000C9483000C9483000C9483000C94830044
:100030000C9483000C9483000C9483000C94830034
:100040000C94C1050C9483000C94CD070C94830090
:100050000C9483000C9483000C9483000C94830014
:100060000C9483000C948300000024272A000025B0
:10007000282B000023262904040404040404040299
:100080000202020202030303030303010204081035
:100090002040800102040810200102040810200002
:1000A0000000070002010000030406000000000039
:1000B00000000000AF0311241FBECFEFD4E0DEBF6D
:1000C000CDBF11E0A0E0B1E0ECEEF0E102C00590A0
:1000D0000D92A835B107D9F711E0A8E5B1E001C04C
:1000E0001D92AE3EB107E1F710E0C6EBD0E004C0D0
:1000F0002297FE010E947008C43BD107C9F70E94F5
:10010000A8030C9474080C940000DF93CF930F9213
:10011000CDB7DEB7898389818EBD0DB407FEFDCFD3
:100120008EB50F90CF91DF9108951F9360E08AE024
:100130000E94BC061EBC0DB407FEFDCF8EB58FEF2E
:100140008EBD0DB407FEFDCF1EB561E08AE00E94B2
:10015000BC0660E08AE00E94BC0680E28EBD0DB461
:1001600007FEFDCF8EB512631EBD0DB407FEFDCF99
:100170008EB561E08AE00E94BC061F9108951F932E
:10018000182F60E08AE00E94BC0685E28EBD0DB4A7
:1001900007FEFDCF8EB51F771EBD0DB407FEFDCF48
:1001A0008EB561E08AE00E94BC061F91089560E070
:1001B0008AE00E94BC0686E28EBD0DB407FEFDCF2C
:1001C0008EB581E08EBD0DB407FEFDCF8EB561E02A
:1001D0008AE00E94BC060895CF93DF93EC0160E0B3
:1001E0008AE00E94BC0680E38EBD0DB407FEFDCF01
:1001F0008EB58A818EBD0DB407FEFDCF8EB5898187
:100200008EBD0DB407FEFDCF8EB588818EBD0DB4B9
:1002100007FEFDCF8EB561E08AE00E94BC06DF914B
:10022000CF910895CF93DF93EC0160E08AE00E94C4
:10023000BC068AE28EBD0DB407FEFDCF8EB58A8165
:100240008EBD0DB407FEFDCF8EB589818EBD0DB478
:1002500007FEFDCF8EB588818EBD0DB407FEFDCFA4
:100260008EB561E08AE00E94BC06DF91CF910895CF
:100270001F93182F60E08AE00E94BC0681E38EBDC8
:100280000DB407FEFDCF8EB51EBD0DB407FEFDCF2C
:100290008EB561E08AE00E94BC061F9108951F930D
:1002A000182F60E08AE00E94BC061EBD0DB407FE58
:1002B000FDCF8EB58FEF8EBD0DB407FEFDCF1EB501
:1002C00061E08AE00E94BC06812F1F9108950F9380
:1002D0001F93062F182F1F71106260E08AE00E94A2
:1002E000BC061EBD0DB407FEFDCF8EB50EBD0DB410
:1002F00007FEFDCF8EB561E08AE00E94BC061F912B
:100300000F9108951F93182F80E00E944F01112331
:1003100019F0682F616002C0682F6E7F80E00E9434
:1003200067011F910895DF93CF930F92CDB7DEB78A
:1003300087E00E944F018983898186FF03C081E0A5
:1003400080935801898180678983698187E00E9451
:1003500067010F90CF91DF9108950F931F93DF9363
:10036000CF9300D00F92CDB7DEB70E94950064E620
:1003700070E080E090E00E942C060E94D70080E0B0
:1003800090E00E94BF0060E08AE00E94BC0683E229
:100390008EBD0DB407FEFDCF8EB581E08EBD0DB4D0
:1003A00007FEFDCF8EB561E08AE00E94BC0660E0EA
:1003B0008AE00E94BC0684E28EBD0DB407FEFDCF2C
:1003C0008EB51EBC0DB407FEFDCF8EB561E08AE090
:1003D0000E94BC0660E08AE00E94BC0681E28EBDFD
:1003E0000DB407FEFDCF8EB51EBC0DB407FEFDCFCC
:1003F0008EB561E08AE00E94BC06DE011196EFE452
:10040000F1E083E001900D928150E1F78E010F5FE2
:100410001F4FC8010E94120185E00E943801C801E7
:100420000E94EC0060E08AE00E94BC0682E28EBD81
:100430000DB407FEFDCF8EB581E08EBD0DB407FE75
:10044000FDCF8EB561E08AE00E94BC0640E050E03E
:1004500063E971E080E00E9457050F900F900F90C4
:10046000CF91DF911F910F910895CF93DF93EC010E
:1004700080E00E94820160E08AE00E94BC0680EA7F
:100480008EBD0DB407FEFDCF8EB588818EBD0DB437
:1004900007FEFDCF8EB589818EBD0DB407FEFDCF61
:1004A0008EB58A818EBD0DB407FEFDCF8EB58B81D2
:1004B0008EBD0DB407FEFDCF8EB58C818EBD0DB403
:1004C00007FEFDCF8EB561E08AE00E94BC0661E0C8
:1004D00089E00E94BC0688EC90E00E94560660E02D
:1004E00089E00E94BC06DF91CF910895DF93CF93FE
:1004F00000D000D000D0CDB7DEB760E08AE00E9427
:10050000BC0681E68EBD0DB407FEFDCF8EB58FEF24
:100510008EBD0DB407FEFDCF4EB58FEF8EBD0DB471
:1005200007FEFDCF3EB58FEF8EBD0DB407FEFDCFAC
:100530002EB58FEF8EBD0DB407FEFDCF9EB58FEFAC
:100540008EBD0DB407FEFDCF8EB549833A832B8354
:100550009C838D831E8261E08AE00E94BC0620E0BD
:1005600030E04EEF50E060E070E08CE591E00E94FA
:10057000370520E030E041E050E060E070E08CE5DD
:1005800091E00E94370566E970E080E090E00E940B
:100590002C06BE016F5F7F4F8CE591E00E94D8036F
:1005A00026960FB6F894DEBF0FBECDBFCF91DF9178
:1005B0000895EF92FF920F931F930E941E067B01F6
:1005C0008C01E0915A01F0915B01EE0FFF1FEB5B94
:1005D000FE4F808191810E94350281E00E9482015C
:1005E00061E089E00E94BC0660E071E08CE591E08A
:1005F0000E94D80340915A0150915B01662757FD34
:100600006095762F20E130E08CE591E00E9437057F
:1006100080915801882369F50E941E066E197F0992
:10062000800B910B685873418040904010F5F0CFDB
:1006300066E071E08CE591E00E94D8030E947602AA
:1006400080915A0190915B01019690935B01809398
:100650005A01059721F410925B0110925A011092F1
:10066000580110C06CE071E08CE591E00E94D80365
:1006700009C060E089E00E94BC068091580188238F
:10068000B9F6F0CF1F910F91FF90EF9008950F935F
:100690001F930CE511E040E855E260E070E0C8010E
:1006A0000E94C30320E030E04EEF50E060E070E0D5
:1006B000C8010E94370520E030E041E050E060E0F2
:1006C00070E0C8010E9437051F910F91089561E005
:1006D0008AE00E949E0661E08DE00E949E0661E035
:1006E0008BE00E949E0660E08CE00E949E0661E026
:1006F00089E00E949E0660E089E00E94BC0660E0FE
:1007000082E00E949E0661E08AE00E94BC0682E5CB
:100710008CBD8DB58EB56AE070E080E090E00E94FF
:100720002C060E94AD010E94470368EE73E080E052
:1007300090E00E942C0666E171E08CE591E00E9459
:10074000D80360ED77E080E090E00E942C060895E9
:100750000E9464060E9467030E94D902FDCF86E5CD
:1007600091E090935D0180935C010895862F0E9433
:100770008C0708950E94C40708950E94A507089554
:100780000E9494070895CB01BA010E94530708956F
:10079000DC01ED91FC910190F081E02D0995089527
:1007A000DC01ED91FC910190F081E02D0995089517
:1007B0000F931F93CF93DF938C01EB0109C0219618
:1007C000D801ED91FC910190F081E02DC8010995CF
:1007D00068816623A1F7DF91CF911F910F91089552
:1007E0000F931F938C01DC01ED91FC910190F0813E
:1007F000E02D6DE00995D801ED91FC910190F0811B
:10080000E02D6AE0C80109951F910F9108950F939B
:100810001F938C01DC01ED91FC910190F081E02DA2
:100820000995C8010E94F0031F910F9108950F933D
:100830001F938C010E94D803C8010E94F0031F91EE
:100840000F9108950F931F938C01DC01ED91FC91A2
:100850000190F081E02D0995C8010E94F0031F91DD
:100860000F9108952F923F924F925F926F927F92D5
:100870008F929F92AF92BF92CF92DF92EF92FF92B0
:100880000F931F93DF93CF93CDB7DEB7A0970FB62B
:10089000F894DEBF0FBECDBF1C016A017B0141157C
:1008A00051056105710549F4DC01ED91FC91019060
:1008B000F081E02D60E3099554C088249924540107
:1008C000422E55246624772401E010E00C0F1D1FF2
:1008D000080D191DC701B601A30192010E941D0850
:1008E000F80160830894811C911CA11CB11CC701F4
:1008F000B601A30192010E941D08C901DA016C0131
:100900007D01C114D104E104F104F1F681E0E82E87
:10091000F12CEC0EFD1EE80CF91C3E010894611C44
:10092000711CD501C4010197A109B1096C01C81856
:10093000D90814C0F601EE0DFF1D60816A3010F475
:10094000605D01C0695CD101ED91FC910190F08185
:10095000E02DC10109950894E108F1086E147F04A7
:1009600049F7A0960FB6F894DEBF0FBECDBFCF916A
:10097000DF911F910F91FF90EF90DF90CF90BF908C
:10098000AF909F908F907F906F905F904F903F902F
:100990002F9008952AE00E94320408950F931F9328
:1009A0008C010E94CA04C8010E94F0031F910F919C
:1009B0000895AB0160E070E00E94CA0408950F93AF
:1009C0001F938C01AB0160E070E00E94CA04C80173
:1009D0000E94F0031F910F910895EF92FF920F93E1
:1009E0001F93CF93DF93EC017A018B0177FF0FC048
:1009F000E881F9810190F081E02D6DE20995109573
:100A00000095F094E094E11CF11C011D111D2AE0F9
:100A1000B801A701CE010E943204DF91CF911F914E
:100A20000F91FF90EF9008950F931F938C010E94F8
:100A3000ED04C8010E94F0031F910F910895AB01CE
:100A4000662757FD6095762F0E94ED0408950F9359
:100A50001F938C01AB01662757FD6095762F0E948E
:100A6000ED04C8010E94F0031F910F910895DC016D
:100A70002115310541F4ED91FC910190F081E02DBB
:100A8000642F099508952A30310519F40E94ED0468
:100A900008950E94320408950F931F938C010E94C1
:100AA0003705C8010E94F0031F910F91089582300D
:100AB000E8F4E82FF0E0EE0FFF1FE25AFE4F7183DB
:100AC0006083882341F4809169008C7F842B80931C
:100AD0006900E89A089580916900440F551F440FFA
:100AE000551F837F842B80936900E99A0895823093
:100AF00068F4882311F4E89801C0E998E82FF0E041
:100B0000EE0FFF1FE25AFE4F1182108208951F92CE
:100B10000F920FB60F9211248F939F93EF93FF9331
:100B200080915E0190915F01892B29F0E0915E0137
:100B3000F0915F010995FF91EF919F918F910F9037
:100B40000FBE0F901F9018951F920F920FB60F9225
:100B500011248F939F93EF93FF9380916001909165
:100B60006101892B29F0E0916001F0916101099503
:100B7000FF91EF919F918F910F900FBE0F901F905B
:100B800018951F920F920FB60F9211242F938F93E7
:100B90009F93AF93BF938091620190916301A09165
:100BA0006401B09165018050904CAF4FBF4F80936E
:100BB000620190936301A0936401B093650127C023
:100BC0008091620190916301A0916401B0916501EF
:100BD00080589E43A040B04080936201909363018F
:100BE000A0936401B09365018091660190916701C3
:100BF000A0916801B09169010196A11DB11D80937A
:100C0000660190936701A0936801B0936901809198
:100C1000620190916301A0916401B09165018158D6
:100C20009E43A040B04060F6BF91AF919F918F91DD
:100C30002F910F900FBE0F901F9018958FB7F894BB
:100C400020916601309167014091680150916901DE
:100C50008FBFB901CA010895EF92FF920F931F93BE
:100C60007B018C018FB7F894409166015091670128
:100C700060916801709169018FBF2FB7F8948091DE
:100C8000660190916701A0916801B09169012FBF41
:100C9000841B950BA60BB70B8E159F05A007B107FC
:100CA00060F31F910F91FF90EF900895019759F015
:100CB000FC01EE0FFF1FEE0FFF1F32978FB7F89466
:100CC0003197F1F78FBF0895789484B5826084BD21
:100CD00084B5816084BD85B5826085BD85B5816040
:100CE00085BDEEE6F0E0808181608083E1E8F0E0A0
:100CF000808182608083808181608083E0E8F0E091
:100D0000808181608083E1EBF0E08081846080837A
:100D1000E0EBF0E0808181608083EAE7F0E08081B1
:100D20008460808380818260808380818160808311
:100D30008081806880831092C1000895282F30E060
:100D4000C90185579F4FFC01949129583F4FF901E4
:100D50008491882381F0E82FF0E0E859FF4FE49177
:100D6000F0E0662329F4808190958923808308959B
:100D70008081892B80830895482F50E0CA018156D5
:100D80009F4FFC012491CA0185579F4FFC0194910C
:100D900049585F4FFA0134913323C1F1222331F1D5
:100DA000233021F4809180008F7705C0243031F406
:100DB000809180008F7D8093800018C0213019F4CD
:100DC00084B58F7704C0223021F484B58F7D84BD33
:100DD0000DC0263021F48091B0008F7705C02730F8
:100DE00029F48091B0008F7D8093B000E32FF0E074
:100DF000E359FF4FE491F0E0662329F48081909558
:100E00008923808308958081892B80830895482FCA
:100E100050E0CA0181569F4FFC012491CA018557B9
:100E20009F4FFC01949149585F4FFA01349133234D
:100E300019F420E030E035C0222331F1233021F4D1
:100E4000809180008F7705C0243031F4809180003C
:100E50008F7D8093800018C0213019F484B58F777E
:100E600004C0223021F484B58F7D84BD0DC02630AE
:100E700021F48091B0008F7705C0273029F480914C
:100E8000B0008F7D8093B000E32FF0E0EE58FF4F6D
:100E9000E491F0E0808120E030E0892311F021E04E
:100EA00030E0C9010895EF92FF920F931F937B01E9
:100EB0008C0122E030E040E050E00E943F08205CDE
:100EC0003D4B404F5F4FCA01B901A80197010E94F5
:100ED0003F08C901DA010197A109B109292F3A2F69
:100EE0004B2F552747FD5A950196A11DB11D209303
:100EF000C50081508093C400E1ECF0E08081806106
:100F000080838081886080838081806880831F9156
:100F10000F91FF90EF900895982F8091C00085FF6A
:100F2000FCCF9093C600089580916A0190916B0167
:100F300080589F4F20916C0130916D01821B930B63
:100F400060E870E00E940A08089540916C01509199
:100F50006D0180916A0190916B018417950719F4D6
:100F60002FEF3FEF0FC0FA01E259FE4F2081CA0177
:100F7000019660E870E00E940A0890936D018093EA
:100F80006C0130E0C901089580916C0190916D0170
:100F900090936B0180936A0108951F920F920FB690
:100FA0000F9211242F933F934F935F936F937F93EF
:100FB0008F939F93AF93BF93EF93FF934091C6009E
:100FC000E0916A01F0916B01CF01019660E870E059
:100FD0000E940A089C0180916C0190916D01281774
:100FE000390739F0E259FE4F408330936B0120936B
:100FF0006A01FF91EF91BF91AF919F918F917F9186
:101000006F915F914F913F912F910F900FBE0F9075
:101010001F90189597FB092E07260AD077FD04D05C
:1010200049D006D000201AF4709561957F4F08953D
:10103000F6F7909581959F4F0895A1E21A2EAA1B6D
:10104000BB1BFD010DC0AA1FBB1FEE1FFF1FA21778
:10105000B307E407F50720F0A21BB30BE40BF50B75
:10106000661F771F881F991F1A9469F760957095FE
:10107000809590959B01AC01BD01CF01089597FB30
:10108000092E05260ED057FD04D0D7DF0AD0001C4C
:1010900038F450954095309521953F4F4F4F5F4F15
:1010A0000895F6F790958095709561957F4F8F4FD5
:1010B0009F4F0895AA1BBB1B51E107C0AA1FBB1F6E
:1010C000A617B70710F0A61BB70B881F991F5A95D4
:1010D000A9F780959095BC01CD010895EE0FFF1FF3
:0C10E0000590F491E02D0994F894FFCFE6
:1010EC0054586564200052586564200054494D459D
:1010FC00204F55542000536574757020636F6D70CC
:10110C006C6574652E200048656C6C6F00457069C9
:10111C00632100476F616C2100506173746100445E
:10112C004B43582E0027012D01330139013F01DAC1
:08113C00BEEF00000000B60345
:00000001FF
